:020000040000FA
:0A000000010A6400CD0B9B0B930B6B
:10032600080C0600460406042604C70C0200000852
:1003360029006A00C60B01024307A20BA30BAB0BF5
:10034600C8004307A70BA80BAA0B4605AB0B06056F
:1003560009023F0001029F014307B20BB30BBB0B1F
:10036600C8004307B70BB80BBA0B4604BB0B060411
:100376004C0C81014307C00BC10BC60B6100010C7D
:100386003F001F02EA01640C8A000307CB0BCC0B6B
:100396009E0B000804096800A802020C0309020C5F
:1003A6002800020C0309020C2800040C030968004B
:1003B600A8020A0C03096B006C006100F30B26050A
:1003C6005F0C81014307E80BE90BF30B6100010C9D
:1003D6003C007D001C02EB010306AC021D02EC0191
:1003E600000C8C00960C43068B000307FB0BFC0BE2
:0803F600E20B2604CE0B000A05
:021FFE00EBFFF7
:00000001FF
